{
  "contractName": "MultiSender",
  "abi": [
    {
      "inputs": [
        {
          "internalType": "uint256",
          "name": "_fee",
          "type": "uint256"
        },
        {
          "internalType": "address",
          "name": "_feeTo",
          "type": "address"
        }
      ],
      "stateMutability": "nonpayable",
      "type": "constructor"
    },
    {
      "anonymous": false,
      "inputs": [
        {
          "indexed": false,
          "internalType": "uint256",
          "name": "total",
          "type": "uint256"
        },
        {
          "indexed": false,
          "internalType": "address",
          "name": "tokenAddress",
          "type": "address"
        }
      ],
      "name": "Multisended",
      "type": "event"
    },
    {
      "anonymous": false,
      "inputs": [
        {
          "indexed": true,
          "internalType": "address",
          "name": "previousOwner",
          "type": "address"
        },
        {
          "indexed": true,
          "internalType": "address",
          "name": "newOwner",
          "type": "address"
        }
      ],
      "name": "OwnershipTransferred",
      "type": "event"
    },
    {
      "anonymous": false,
      "inputs": [
        {
          "indexed": true,
          "internalType": "address",
          "name": "token",
          "type": "address"
        },
        {
          "indexed": true,
          "internalType": "address",
          "name": "to",
          "type": "address"
        },
        {
          "indexed": false,
          "internalType": "uint256",
          "name": "amount",
          "type": "uint256"
        }
      ],
      "name": "Withdrawn",
      "type": "event"
    },
    {
      "inputs": [],
      "name": "fee",
      "outputs": [
        {
          "internalType": "uint256",
          "name": "",
          "type": "uint256"
        }
      ],
      "stateMutability": "view",
      "type": "function"
    },
    {
      "inputs": [],
      "name": "owner",
      "outputs": [
        {
          "internalType": "address",
          "name": "",
          "type": "address"
        }
      ],
      "stateMutability": "view",
      "type": "function"
    },
    {
      "inputs": [],
      "name": "renounceOwnership",
      "outputs": [],
      "stateMutability": "nonpayable",
      "type": "function"
    },
    {
      "inputs": [
        {
          "internalType": "address",
          "name": "newOwner",
          "type": "address"
        }
      ],
      "name": "transferOwnership",
      "outputs": [],
      "stateMutability": "nonpayable",
      "type": "function"
    },
    {
      "stateMutability": "payable",
      "type": "receive"
    },
    {
      "inputs": [
        {
          "internalType": "uint256",
          "name": "_amount",
          "type": "uint256"
        }
      ],
      "name": "withdraw",
      "outputs": [],
      "stateMutability": "nonpayable",
      "type": "function"
    },
    {
      "inputs": [
        {
          "internalType": "address",
          "name": "_token",
          "type": "address"
        },
        {
          "internalType": "uint256",
          "name": "_amount",
          "type": "uint256"
        }
      ],
      "name": "withdrawToken",
      "outputs": [],
      "stateMutability": "nonpayable",
      "type": "function"
    },
    {
      "inputs": [
        {
          "internalType": "uint256",
          "name": "_newFee",
          "type": "uint256"
        }
      ],
      "name": "setFee",
      "outputs": [],
      "stateMutability": "nonpayable",
      "type": "function"
    },
    {
      "inputs": [
        {
          "internalType": "address",
          "name": "_feeTo",
          "type": "address"
        }
      ],
      "name": "setFeeTo",
      "outputs": [],
      "stateMutability": "nonpayable",
      "type": "function"
    },
    {
      "inputs": [
        {
          "internalType": "address",
          "name": "token",
          "type": "address"
        },
        {
          "internalType": "address[]",
          "name": "_contributors",
          "type": "address[]"
        },
        {
          "internalType": "uint256[]",
          "name": "_balances",
          "type": "uint256[]"
        }
      ],
      "name": "multisendToken",
      "outputs": [],
      "stateMutability": "payable",
      "type": "function"
    },
    {
      "inputs": [
        {
          "internalType": "address[]",
          "name": "_contributors",
          "type": "address[]"
        },
        {
          "internalType": "uint256[]",
          "name": "_balances",
          "type": "uint256[]"
        }
      ],
      "name": "multisendEther",
      "outputs": [],
      "stateMutability": "payable",
      "type": "function"
    }
  ],
  "bytecode": "0x60806040523480156200001157600080fd5b506040516200206438038062002064833981810160405281019062000037919062000387565b620000576200004b6200008160201b60201c565b6200008960201b60201c565b62000068826200014d60201b60201c565b6200007981620001e660201b60201c565b505062000451565b600033905090565b60008060009054906101000a900473ffffffffffffffffffffffffffffffffffffffff169050816000806101000a81548173ffffffffffffffffffffffffffffffffffffffff021916908373ffffffffffffffffffffffffffffffffffffffff1602179055508173ffffffffffffffffffffffffffffffffffffffff168173ffffffffffffffffffffffffffffffffffffffff167f8be0079c531659141344cd1fd0a4f28419497f9722a3daafe3b4186f6b6457e060405160405180910390a35050565b6200015d6200008160201b60201c565b73ffffffffffffffffffffffffffffffffffffffff1662000183620002b960201b60201c565b73ffffffffffffffffffffffffffffffffffffffff1614620001dc576040517f08c379a0000000000000000000000000000000000000000000000000000000008152600401620001d3906200042f565b60405180910390fd5b8060018190555050565b620001f66200008160201b60201c565b73ffffffffffffffffffffffffffffffffffffffff166200021c620002b960201b60201c565b73ffffffffffffffffffffffffffffffffffffffff161462000275576040517f08c379a00000000000000000000000000000000000000000000000000000000081526004016200026c906200042f565b60405180910390fd5b80600260006101000a81548173ffffffffffffffffffffffffffffffffffffffff021916908373ffffffffffffffffffffffffffffffffffffffff16021790555050565b60008060009054906101000a900473ffffffffffffffffffffffffffffffffffffffff16905090565b600080fd5b6000819050919050565b620002fc81620002e7565b81146200030857600080fd5b50565b6000815190506200031c81620002f1565b92915050565b600073ffffffffffffffffffffffffffffffffffffffff82169050919050565b60006200034f8262000322565b9050919050565b620003618162000342565b81146200036d57600080fd5b50565b600081519050620003818162000356565b92915050565b60008060408385031215620003a157620003a0620002e2565b5b6000620003b1858286016200030b565b9250506020620003c48582860162000370565b9150509250929050565b600082825260208201905092915050565b7f4f776e61626c653a2063616c6c6572206973206e6f7420746865206f776e6572600082015250565b600062000417602083620003ce565b91506200042482620003df565b602082019050919050565b600060208201905081810360008301526200044a8162000408565b9050919050565b611c0380620004616000396000f3fe6080604052600436106100955760003560e01c80639e281a98116100595780639e281a9814610151578063ab883d281461017a578063ddca3f4314610196578063f2fde38b146101c1578063f46901ed146101ea5761009c565b80630b66f3f5146100a15780632e1a7d4d146100bd57806369fe0e2d146100e6578063715018a61461010f5780638da5cb5b146101265761009c565b3661009c57005b600080fd5b6100bb60048036038101906100b6919061121d565b610213565b005b3480156100c957600080fd5b506100e460048036038101906100df91906112e8565b61047f565b005b3480156100f257600080fd5b5061010d600480360381019061010891906112e8565b6105ef565b005b34801561011b57600080fd5b50610124610675565b005b34801561013257600080fd5b5061013b6106fd565b6040516101489190611324565b60405180910390f35b34801561015d57600080fd5b506101786004803603810190610173919061133f565b610726565b005b610194600480360381019061018f919061137f565b61087a565b005b3480156101a257600080fd5b506101ab610a8c565b6040516101b8919061140f565b60405180910390f35b3480156101cd57600080fd5b506101e860048036038101906101e3919061142a565b610a92565b005b3480156101f657600080fd5b50610211600480360381019061020c919061142a565b610b8a565b005b81819050848490501461025b576040517f08c379a0000000000000000000000000000000000000000000000000000000008152600401610252906114b4565b60405180910390fd5b61beef73ffffffffffffffffffffffffffffffffffffffff168573ffffffffffffffffffffffffffffffffffffffff16141561033b576102db828280806020026020016040519081016040528093929190818152602001838360200280828437600081840152601f19601f82011690508083019250505050505050610c4a565b6001546102e89190611503565b34101561032a576040517f08c379a0000000000000000000000000000000000000000000000000000000008152600401610321906115a5565b60405180910390fd5b6103368484848461087a565b610478565b600154341015610380576040517f08c379a000000000000000000000000000000000000000000000000000000000815260040161037790611611565b60405180910390fd5b60008086905060005b8686905081101561043b57610401338888848181106103ab576103aa611631565b5b90506020020160208101906103c0919061142a565b8787858181106103d3576103d2611631565b5b905060200201358573ffffffffffffffffffffffffffffffffffffffff16610ca2909392919063ffffffff16565b84848281811061041457610413611631565b5b90506020020135836104269190611503565b9250808061043390611660565b915050610389565b507f04afd2ce457d973046bd54f5d7d36368546da08b88be1bca8ae50e32b451da17828860405161046d9291906116a9565b60405180910390a150505b5050505050565b610487610d2b565b73ffffffffffffffffffffffffffffffffffffffff166104a56106fd565b73ffffffffffffffffffffffffffffffffffffffff16146104fb576040517f08c379a00000000000000000000000000000000000000000000000000000000081526004016104f29061171e565b60405180910390fd5b600260009054906101000a900473ffffffffffffffffffffffffffffffffffffffff1673ffffffffffffffffffffffffffffffffffffffff166108fc829081150290604051600060405180830381858888f19350505050158015610563573d6000803e3d6000fd5b50600260009054906101000a900473ffffffffffffffffffffffffffffffffffffffff1673ffffffffffffffffffffffffffffffffffffffff16600073ffffffffffffffffffffffffffffffffffffffff167fd1c19fbcd4551a5edfb66d43d2e337c04837afda3482b42bdf569a8fccdae5fb836040516105e4919061140f565b60405180910390a350565b6105f7610d2b565b73ffffffffffffffffffffffffffffffffffffffff166106156106fd565b73ffffffffffffffffffffffffffffffffffffffff161461066b576040517f08c379a00000000000000000000000000000000000000000000000000000000081526004016106629061171e565b60405180910390fd5b8060018190555050565b61067d610d2b565b73ffffffffffffffffffffffffffffffffffffffff1661069b6106fd565b73ffffffffffffffffffffffffffffffffffffffff16146106f1576040517f08c379a00000000000000000000000000000000000000000000000000000000081526004016106e89061171e565b60405180910390fd5b6106fb6000610d33565b565b60008060009054906101000a900473ffffffffffffffffffffffffffffffffffffffff16905090565b61072e610d2b565b73ffffffffffffffffffffffffffffffffffffffff1661074c6106fd565b73ffffffffffffffffffffffffffffffffffffffff16146107a2576040517f08c379a00000000000000000000000000000000000000000000000000000000081526004016107999061171e565b60405180910390fd5b6107ef600260009054906101000a900473ffffffffffffffffffffffffffffffffffffffff16828473ffffffffffffffffffffffffffffffffffffffff16610df79092919063ffffffff16565b600260009054906101000a900473ffffffffffffffffffffffffffffffffffffffff1673ffffffffffffffffffffffffffffffffffffffff168273ffffffffffffffffffffffffffffffffffffffff167fd1c19fbcd4551a5edfb66d43d2e337c04837afda3482b42bdf569a8fccdae5fb8360405161086e919061140f565b60405180910390a35050565b600034905060006001548261088f919061173e565b90506108db848480806020026020016040519081016040528093929190818152602001838360200280828437600081840152601f19601f82011690508083019250505050505050610c4a565b81101561091d576040517f08c379a0000000000000000000000000000000000000000000000000000000008152600401610914906115a5565b60405180910390fd5b60005b86869050811015610a485784848281811061093e5761093d611631565b5b90506020020135831015610987576040517f08c379a000000000000000000000000000000000000000000000000000000000815260040161097e906117be565b60405180910390fd5b84848281811061099a57610999611631565b5b90506020020135836109ac919061173e565b92508686828181106109c1576109c0611631565b5b90506020020160208101906109d6919061142a565b73ffffffffffffffffffffffffffffffffffffffff166108fc868684818110610a0257610a01611631565b5b905060200201359081150290604051600060405180830381858888f19350505050158015610a34573d6000803e3d6000fd5b508080610a4090611660565b915050610920565b507f04afd2ce457d973046bd54f5d7d36368546da08b88be1bca8ae50e32b451da178161beef604051610a7c9291906116a9565b60405180910390a1505050505050565b60015481565b610a9a610d2b565b73ffffffffffffffffffffffffffffffffffffffff16610ab86106fd565b73ffffffffffffffffffffffffffffffffffffffff1614610b0e576040517f08c379a0000000000000000000000000000000000000000000000000000000008152600401610b059061171e565b60405180910390fd5b600073ffffffffffffffffffffffffffffffffffffffff168173ffffffffffffffffffffffffffffffffffffffff161415610b7e576040517f08c379a0000000000000000000000000000000000000000000000000000000008152600401610b7590611850565b60405180910390fd5b610b8781610d33565b50565b610b92610d2b565b73ffffffffffffffffffffffffffffffffffffffff16610bb06106fd565b73ffffffffffffffffffffffffffffffffffffffff1614610c06576040517f08c379a0000000000000000000000000000000000000000000000000000000008152600401610bfd9061171e565b60405180910390fd5b80600260006101000a81548173ffffffffffffffffffffffffffffffffffffffff021916908373ffffffffffffffffffffffffffffffffffffffff16021790555050565b6000806000905060005b8351811015610c9857838181518110610c7057610c6f611631565b5b602002602001015182610c839190611503565b91508080610c9090611660565b915050610c54565b5080915050919050565b610d25846323b872dd60e01b858585604051602401610cc393929190611870565b604051602081830303815290604052907bffffffffffffffffffffffffffffffffffffffffffffffffffffffff19166020820180517bffffffffffffffffffffffffffffffffffffffffffffffffffffffff8381831617835250505050610e7d565b50505050565b600033905090565b60008060009054906101000a900473ffffffffffffffffffffffffffffffffffffffff169050816000806101000a81548173ffffffffffffffffffffffffffffffffffffffff021916908373ffffffffffffffffffffffffffffffffffffffff1602179055508173ffffffffffffffffffffffffffffffffffffffff168173ffffffffffffffffffffffffffffffffffffffff167f8be0079c531659141344cd1fd0a4f28419497f9722a3daafe3b4186f6b6457e060405160405180910390a35050565b610e788363a9059cbb60e01b8484604051602401610e169291906118a7565b604051602081830303815290604052907bffffffffffffffffffffffffffffffffffffffffffffffffffffffff19166020820180517bffffffffffffffffffffffffffffffffffffffffffffffffffffffff8381831617835250505050610e7d565b505050565b6000610edf826040518060400160405280602081526020017f5361666545524332303a206c6f772d6c6576656c2063616c6c206661696c65648152508573ffffffffffffffffffffffffffffffffffffffff16610f449092919063ffffffff16565b9050600081511115610f3f5780806020019051810190610eff9190611908565b610f3e576040517f08c379a0000000000000000000000000000000000000000000000000000000008152600401610f35906119a7565b60405180910390fd5b5b505050565b6060610f538484600085610f5c565b90509392505050565b606082471015610fa1576040517f08c379a0000000000000000000000000000000000000000000000000000000008152600401610f9890611a39565b60405180910390fd5b610faa85611070565b610fe9576040517f08c379a0000000000000000000000000000000000000000000000000000000008152600401610fe090611aa5565b60405180910390fd5b6000808673ffffffffffffffffffffffffffffffffffffffff1685876040516110129190611b3f565b60006040518083038185875af1925050503d806000811461104f576040519150601f19603f3d011682016040523d82523d6000602084013e611054565b606091505b5091509150611064828286611093565b92505050949350505050565b6000808273ffffffffffffffffffffffffffffffffffffffff163b119050919050565b606083156110a3578290506110f3565b6000835111156110b65782518084602001fd5b816040517f08c379a00000000000000000000000000000000000000000000000000000000081526004016110ea9190611bab565b60405180910390fd5b9392505050565b600080fd5b600080fd5b600073ffffffffffffffffffffffffffffffffffffffff82169050919050565b600061112f82611104565b9050919050565b61113f81611124565b811461114a57600080fd5b50565b60008135905061115c81611136565b92915050565b600080fd5b600080fd5b600080fd5b60008083601f84011261118757611186611162565b5b8235905067ffffffffffffffff8111156111a4576111a3611167565b5b6020830191508360208202830111156111c0576111bf61116c565b5b9250929050565b60008083601f8401126111dd576111dc611162565b5b8235905067ffffffffffffffff8111156111fa576111f9611167565b5b6020830191508360208202830111156112165761121561116c565b5b9250929050565b600080600080600060608688031215611239576112386110fa565b5b60006112478882890161114d565b955050602086013567ffffffffffffffff811115611268576112676110ff565b5b61127488828901611171565b9450945050604086013567ffffffffffffffff811115611297576112966110ff565b5b6112a3888289016111c7565b92509250509295509295909350565b6000819050919050565b6112c5816112b2565b81146112d057600080fd5b50565b6000813590506112e2816112bc565b92915050565b6000602082840312156112fe576112fd6110fa565b5b600061130c848285016112d3565b91505092915050565b61131e81611124565b82525050565b60006020820190506113396000830184611315565b92915050565b60008060408385031215611356576113556110fa565b5b60006113648582860161114d565b9250506020611375858286016112d3565b9150509250929050565b60008060008060408587031215611399576113986110fa565b5b600085013567ffffffffffffffff8111156113b7576113b66110ff565b5b6113c387828801611171565b9450945050602085013567ffffffffffffffff8111156113e6576113e56110ff565b5b6113f2878288016111c7565b925092505092959194509250565b611409816112b2565b82525050565b60006020820190506114246000830184611400565b92915050565b6000602082840312156114405761143f6110fa565b5b600061144e8482850161114d565b91505092915050565b600082825260208201905092915050565b7f706172616d65746572206572726f720000000000000000000000000000000000600082015250565b600061149e600f83611457565b91506114a982611468565b602082019050919050565b600060208201905081810360008301526114cd81611491565b9050919050565b7f4e487b7100000000000000000000000000000000000000000000000000000000600052601160045260246000fd5b600061150e826112b2565b9150611519836112b2565b9250827fffffffffffffffffffffffffffffffffffffffffffffffffffffffffffffffff0382111561154e5761154d6114d4565b5b828201905092915050565b7f73656e6420616d6f756e74206572726f72206f7220776974686f757420666565600082015250565b600061158f602083611457565b915061159a82611559565b602082019050919050565b600060208201905081810360008301526115be81611582565b9050919050565b7f6e65656420746f20706179000000000000000000000000000000000000000000600082015250565b60006115fb600b83611457565b9150611606826115c5565b602082019050919050565b6000602082019050818103600083015261162a816115ee565b9050919050565b7f4e487b7100000000000000000000000000000000000000000000000000000000600052603260045260246000fd5b600061166b826112b2565b91507fffffffffffffffffffffffffffffffffffffffffffffffffffffffffffffffff82141561169e5761169d6114d4565b5b600182019050919050565b60006040820190506116be6000830185611400565b6116cb6020830184611315565b9392505050565b7f4f776e61626c653a2063616c6c6572206973206e6f7420746865206f776e6572600082015250565b6000611708602083611457565b9150611713826116d2565b602082019050919050565b60006020820190508181036000830152611737816116fb565b9050919050565b6000611749826112b2565b9150611754836112b2565b925082821015611767576117666114d4565b5b828203905092915050565b7f6e6f7420656e6f75676820657468657200000000000000000000000000000000600082015250565b60006117a8601083611457565b91506117b382611772565b602082019050919050565b600060208201905081810360008301526117d78161179b565b9050919050565b7f4f776e61626c653a206e6577206f776e657220697320746865207a65726f206160008201527f6464726573730000000000000000000000000000000000000000000000000000602082015250565b600061183a602683611457565b9150611845826117de565b604082019050919050565b600060208201905081810360008301526118698161182d565b9050919050565b60006060820190506118856000830186611315565b6118926020830185611315565b61189f6040830184611400565b949350505050565b60006040820190506118bc6000830185611315565b6118c96020830184611400565b9392505050565b60008115159050919050565b6118e5816118d0565b81146118f057600080fd5b50565b600081519050611902816118dc565b92915050565b60006020828403121561191e5761191d6110fa565b5b600061192c848285016118f3565b91505092915050565b7f5361666545524332303a204552433230206f7065726174696f6e20646964206e60008201527f6f74207375636365656400000000000000000000000000000000000000000000602082015250565b6000611991602a83611457565b915061199c82611935565b604082019050919050565b600060208201905081810360008301526119c081611984565b9050919050565b7f416464726573733a20696e73756666696369656e742062616c616e636520666f60008201527f722063616c6c0000000000000000000000000000000000000000000000000000602082015250565b6000611a23602683611457565b9150611a2e826119c7565b604082019050919050565b60006020820190508181036000830152611a5281611a16565b9050919050565b7f416464726573733a2063616c6c20746f206e6f6e2d636f6e7472616374000000600082015250565b6000611a8f601d83611457565b9150611a9a82611a59565b602082019050919050565b60006020820190508181036000830152611abe81611a82565b9050919050565b600081519050919050565b600081905092915050565b60005b83811015611af9578082015181840152602081019050611ade565b83811115611b08576000848401525b50505050565b6000611b1982611ac5565b611b238185611ad0565b9350611b33818560208601611adb565b80840191505092915050565b6000611b4b8284611b0e565b915081905092915050565b600081519050919050565b6000601f19601f8301169050919050565b6000611b7d82611b56565b611b878185611457565b9350611b97818560208601611adb565b611ba081611b61565b840191505092915050565b60006020820190508181036000830152611bc58184611b72565b90509291505056fea26469706673582212201602c98b7563ea910c4e98350ac0d0d11e85eb94435b79fa4dd68286e986851a64736f6c63430008080033",
  "immutableReferences": {},
  "source": "// SPDX-License-Identifier: UNLICENSED\npragma solidity ^0.8.8;\n\n// import \"@openzeppelin/contracts/access/Ownable.sol\";\n// import \"@openzeppelin/contracts/token/ERC20/IERC20.sol\";\n// import \"@openzeppelin/contracts/token/ERC20/utils/SafeERC20.sol\";\n\n\nimport \"../node_modules/@openzeppelin/contracts/access/Ownable.sol\";\nimport \"../node_modules/@openzeppelin/contracts/token/ERC20/IERC20.sol\";\nimport \"../node_modules/@openzeppelin/contracts/token/ERC20/utils/SafeERC20.sol\";\n\ncontract MultiSender is Ownable {\n    using SafeERC20 for IERC20;\n\n    uint public fee;\n    address payable feeTo;\n\n    event Withdrawn(address indexed token, address indexed to, uint amount);\n    event Multisended(uint256 total, address tokenAddress);\n\n    constructor(uint _fee, address _feeTo) {\n        setFee(_fee);\n        setFeeTo(_feeTo);\n    }\n\n    receive() external payable {}\n\n    /// @dev eth\n    function withdraw(uint _amount) external onlyOwner {\n        feeTo.transfer(_amount); \n        emit Withdrawn(address(0), feeTo, _amount);\n    }\n\n    /// @dev token\n    function withdrawToken(address _token, uint _amount) external onlyOwner {\n        IERC20(_token).safeTransfer(feeTo, _amount);   \n        emit Withdrawn(_token, feeTo, _amount);\n    }\n\n    /// @dev \b\n    function setFee(uint256 _newFee) public onlyOwner {\n        fee = _newFee;\n    }\n\n    function setFeeTo(address _feeTo) public onlyOwner {\n        feeTo = payable(_feeTo);\n    }\n \n    /// @dev token == 0x000000000000000000000000000000000000bEEF ethtoken\n    /// @notice trc20safeTransfer\n    function multisendToken(address token, address[] calldata _contributors, uint256[] calldata _balances) external payable {\n        require(_contributors.length == _balances.length, \"parameter error\");\n        if (token == 0x000000000000000000000000000000000000bEEF){\n            require(msg.value >= fee + sum(_balances), \"send amount error or without fee\");\n            multisendEther(_contributors, _balances);\n        } else {\n            require(msg.value >= fee, \"need to pay\");\n            uint total = 0;\n            IERC20 erc20 = IERC20(token);\n            for (uint i; i < _contributors.length; i++) {\n                erc20.safeTransferFrom(msg.sender, _contributors[i], _balances[i]);\n                total += _balances[i];\n            }\n            emit Multisended(total, token);\n        }\n    }\n\n    function multisendEther(address[] calldata _contributors, uint256[] calldata _balances) public payable {\n        uint256 totalValue = msg.value;\n        uint totalSend = totalValue - fee;\n        require(totalSend >= sum(_balances), \"send amount error or without fee\");\n\n        for (uint i; i < _contributors.length; i++) {\n            require(totalValue >= _balances[i], \"not enough ether\");\n            totalValue -= _balances[i];\n            payable(_contributors[i]).transfer(_balances[i]);\n        }\n        emit Multisended(totalSend, 0x000000000000000000000000000000000000bEEF);\n    }\n\n    function sum(uint[] memory amounts) internal pure returns (uint) {\n        uint totalAmnt = 0;\n        for (uint i=0; i < amounts.length; i++) {\n            totalAmnt += amounts[i];\n        }\n        return totalAmnt;\n    }\n\n}",
  "sourcePath": "/Users/caoshiyuan/project/self/Blockchain/truffle-solidity/contracts/MultiSender.sol",
  "compiler": {
    "name": "solc",
    "version": "0.8.8+commit.dddeac2f.Linux.g++"
  },
  "schemaVersion": "3.4.7",
  "updatedAt": "2022-04-30T13:35:00.946Z",
  "devdoc": {
    "kind": "dev",
    "methods": {
      "multisendToken(address,address[],uint256[])": {
        "details": "token == 0x000000000000000000000000000000000000bEEF ethtoken"
      },
      "owner()": {
        "details": "Returns the address of the current owner."
      },
      "renounceOwnership()": {
        "details": "Leaves the contract without owner. It will not be possible to call `onlyOwner` functions anymore. Can only be called by the current owner. NOTE: Renouncing ownership will leave the contract without an owner, thereby removing any functionality that is only available to the owner."
      },
      "setFee(uint256)": {
        "details": "\b"
      },
      "transferOwnership(address)": {
        "details": "Transfers ownership of the contract to a new account (`newOwner`). Can only be called by the current owner."
      },
      "withdraw(uint256)": {
        "details": "eth"
      },
      "withdrawToken(address,uint256)": {
        "details": "token"
      }
    },
    "version": 1
  },
  "userdoc": {
    "kind": "user",
    "methods": {
      "multisendToken(address,address[],uint256[])": {
        "notice": "trc20safeTransfer"
      }
    },
    "version": 1
  }
}