{
  "contractName": "MultiSender",
  "abi": [
    {
      "inputs": [
        {
          "internalType": "uint256",
          "name": "_fee",
          "type": "uint256"
        },
        {
          "internalType": "address",
          "name": "_feeTo",
          "type": "address"
        }
      ],
      "stateMutability": "nonpayable",
      "type": "constructor"
    },
    {
      "anonymous": false,
      "inputs": [
        {
          "indexed": false,
          "internalType": "uint256",
          "name": "total",
          "type": "uint256"
        },
        {
          "indexed": false,
          "internalType": "address",
          "name": "tokenAddress",
          "type": "address"
        }
      ],
      "name": "Multisended",
      "type": "event"
    },
    {
      "anonymous": false,
      "inputs": [
        {
          "indexed": true,
          "internalType": "address",
          "name": "previousOwner",
          "type": "address"
        },
        {
          "indexed": true,
          "internalType": "address",
          "name": "newOwner",
          "type": "address"
        }
      ],
      "name": "OwnershipTransferred",
      "type": "event"
    },
    {
      "anonymous": false,
      "inputs": [
        {
          "indexed": true,
          "internalType": "address",
          "name": "token",
          "type": "address"
        },
        {
          "indexed": true,
          "internalType": "address",
          "name": "to",
          "type": "address"
        },
        {
          "indexed": false,
          "internalType": "uint256",
          "name": "amount",
          "type": "uint256"
        }
      ],
      "name": "Withdrawn",
      "type": "event"
    },
    {
      "inputs": [],
      "name": "fee",
      "outputs": [
        {
          "internalType": "uint256",
          "name": "",
          "type": "uint256"
        }
      ],
      "stateMutability": "view",
      "type": "function"
    },
    {
      "inputs": [],
      "name": "owner",
      "outputs": [
        {
          "internalType": "address",
          "name": "",
          "type": "address"
        }
      ],
      "stateMutability": "view",
      "type": "function"
    },
    {
      "inputs": [],
      "name": "renounceOwnership",
      "outputs": [],
      "stateMutability": "nonpayable",
      "type": "function"
    },
    {
      "inputs": [
        {
          "internalType": "address",
          "name": "newOwner",
          "type": "address"
        }
      ],
      "name": "transferOwnership",
      "outputs": [],
      "stateMutability": "nonpayable",
      "type": "function"
    },
    {
      "stateMutability": "payable",
      "type": "receive"
    },
    {
      "inputs": [
        {
          "internalType": "uint256",
          "name": "_amount",
          "type": "uint256"
        }
      ],
      "name": "withdraw",
      "outputs": [],
      "stateMutability": "nonpayable",
      "type": "function"
    },
    {
      "inputs": [
        {
          "internalType": "address",
          "name": "_token",
          "type": "address"
        },
        {
          "internalType": "uint256",
          "name": "_amount",
          "type": "uint256"
        }
      ],
      "name": "withdrawToken",
      "outputs": [],
      "stateMutability": "nonpayable",
      "type": "function"
    },
    {
      "inputs": [
        {
          "internalType": "uint256",
          "name": "_newFee",
          "type": "uint256"
        }
      ],
      "name": "setFee",
      "outputs": [],
      "stateMutability": "nonpayable",
      "type": "function"
    },
    {
      "inputs": [
        {
          "internalType": "address",
          "name": "_feeTo",
          "type": "address"
        }
      ],
      "name": "setFeeTo",
      "outputs": [],
      "stateMutability": "nonpayable",
      "type": "function"
    },
    {
      "inputs": [
        {
          "internalType": "address",
          "name": "token",
          "type": "address"
        },
        {
          "internalType": "address[]",
          "name": "_contributors",
          "type": "address[]"
        },
        {
          "internalType": "uint256[]",
          "name": "_balances",
          "type": "uint256[]"
        }
      ],
      "name": "multisendToken",
      "outputs": [],
      "stateMutability": "payable",
      "type": "function"
    },
    {
      "inputs": [
        {
          "internalType": "address[]",
          "name": "_contributors",
          "type": "address[]"
        },
        {
          "internalType": "uint256[]",
          "name": "_balances",
          "type": "uint256[]"
        }
      ],
      "name": "multisendEther",
      "outputs": [],
      "stateMutability": "payable",
      "type": "function"
    }
  ],
  "bytecode": "0x60806040523480156200001157600080fd5b5060405162001dd538038062001dd583398181016040528101906200003791906200031a565b620000576200004b6200008160201b60201c565b6200008960201b60201c565b62000068826200014d60201b60201c565b62000079816200016760201b60201c565b5050620003e4565b600033905090565b60008060009054906101000a900473ffffffffffffffffffffffffffffffffffffffff169050816000806101000a81548173ffffffffffffffffffffffffffffffffffffffff021916908373ffffffffffffffffffffffffffffffffffffffff1602179055508173ffffffffffffffffffffffffffffffffffffffff168173ffffffffffffffffffffffffffffffffffffffff167f8be0079c531659141344cd1fd0a4f28419497f9722a3daafe3b4186f6b6457e060405160405180910390a35050565b6200015d620001bb60201b60201c565b8060018190555050565b62000177620001bb60201b60201c565b80600260006101000a81548173ffffffffffffffffffffffffffffffffffffffff021916908373ffffffffffffffffffffffffffffffffffffffff16021790555050565b620001cb6200008160201b60201c565b73ffffffffffffffffffffffffffffffffffffffff16620001f16200024c60201b60201c565b73ffffffffffffffffffffffffffffffffffffffff16146200024a576040517f08c379a00000000000000000000000000000000000000000000000000000000081526004016200024190620003c2565b60405180910390fd5b565b60008060009054906101000a900473ffffffffffffffffffffffffffffffffffffffff16905090565b600080fd5b6000819050919050565b6200028f816200027a565b81146200029b57600080fd5b50565b600081519050620002af8162000284565b92915050565b600073ffffffffffffffffffffffffffffffffffffffff82169050919050565b6000620002e282620002b5565b9050919050565b620002f481620002d5565b81146200030057600080fd5b50565b6000815190506200031481620002e9565b92915050565b6000806040838503121562000334576200033362000275565b5b600062000344858286016200029e565b9250506020620003578582860162000303565b9150509250929050565b600082825260208201905092915050565b7f4f776e61626c653a2063616c6c6572206973206e6f7420746865206f776e6572600082015250565b6000620003aa60208362000361565b9150620003b78262000372565b602082019050919050565b60006020820190508181036000830152620003dd816200039b565b9050919050565b6119e180620003f46000396000f3fe6080604052600436106100955760003560e01c80639e281a98116100595780639e281a9814610151578063ab883d281461017a578063ddca3f4314610196578063f2fde38b146101c1578063f46901ed146101ea5761009c565b80630b66f3f5146100a15780632e1a7d4d146100bd57806369fe0e2d146100e6578063715018a61461010f5780638da5cb5b146101265761009c565b3661009c57005b600080fd5b6100bb60048036038101906100b69190610ffb565b610213565b005b3480156100c957600080fd5b506100e460048036038101906100df91906110c6565b61047f565b005b3480156100f257600080fd5b5061010d600480360381019061010891906110c6565b61057b565b005b34801561011b57600080fd5b5061012461058d565b005b34801561013257600080fd5b5061013b6105a1565b6040516101489190611102565b60405180910390f35b34801561015d57600080fd5b506101786004803603810190610173919061111d565b6105ca565b005b610194600480360381019061018f919061115d565b6106aa565b005b3480156101a257600080fd5b506101ab6108bc565b6040516101b891906111ed565b60405180910390f35b3480156101cd57600080fd5b506101e860048036038101906101e39190611208565b6108c2565b005b3480156101f657600080fd5b50610211600480360381019061020c9190611208565b610946565b005b81819050848490501461025b576040517f08c379a000000000000000000000000000000000000000000000000000000000815260040161025290611292565b60405180910390fd5b61beef73ffffffffffffffffffffffffffffffffffffffff168573ffffffffffffffffffffffffffffffffffffffff16141561033b576102db828280806020026020016040519081016040528093929190818152602001838360200280828437600081840152601f19601f82011690508083019250505050505050610992565b6001546102e891906112e1565b34101561032a576040517f08c379a000000000000000000000000000000000000000000000000000000000815260040161032190611383565b60405180910390fd5b610336848484846106aa565b610478565b600154341015610380576040517f08c379a0000000000000000000000000000000000000000000000000000000008152600401610377906113ef565b60405180910390fd5b60008086905060005b8686905081101561043b57610401338888848181106103ab576103aa61140f565b5b90506020020160208101906103c09190611208565b8787858181106103d3576103d261140f565b5b905060200201358573ffffffffffffffffffffffffffffffffffffffff166109ea909392919063ffffffff16565b8484828181106104145761041361140f565b5b905060200201358361042691906112e1565b925080806104339061143e565b915050610389565b507f04afd2ce457d973046bd54f5d7d36368546da08b88be1bca8ae50e32b451da17828860405161046d929190611487565b60405180910390a150505b5050505050565b610487610a73565b600260009054906101000a900473ffffffffffffffffffffffffffffffffffffffff1673ffffffffffffffffffffffffffffffffffffffff166108fc829081150290604051600060405180830381858888f193505050501580156104ef573d6000803e3d6000fd5b50600260009054906101000a900473ffffffffffffffffffffffffffffffffffffffff1673ffffffffffffffffffffffffffffffffffffffff16600073ffffffffffffffffffffffffffffffffffffffff167fd1c19fbcd4551a5edfb66d43d2e337c04837afda3482b42bdf569a8fccdae5fb8360405161057091906111ed565b60405180910390a350565b610583610a73565b8060018190555050565b610595610a73565b61059f6000610af1565b565b60008060009054906101000a900473ffffffffffffffffffffffffffffffffffffffff16905090565b6105d2610a73565b61061f600260009054906101000a900473ffffffffffffffffffffffffffffffffffffffff16828473ffffffffffffffffffffffffffffffffffffffff16610bb59092919063ffffffff16565b600260009054906101000a900473ffffffffffffffffffffffffffffffffffffffff1673ffffffffffffffffffffffffffffffffffffffff168273ffffffffffffffffffffffffffffffffffffffff167fd1c19fbcd4551a5edfb66d43d2e337c04837afda3482b42bdf569a8fccdae5fb8360405161069e91906111ed565b60405180910390a35050565b60003490506000600154826106bf91906114b0565b905061070b848480806020026020016040519081016040528093929190818152602001838360200280828437600081840152601f19601f82011690508083019250505050505050610992565b81101561074d576040517f08c379a000000000000000000000000000000000000000000000000000000000815260040161074490611383565b60405180910390fd5b60005b868690508110156108785784848281811061076e5761076d61140f565b5b905060200201358310156107b7576040517f08c379a00000000000000000000000000000000000000000000000000000000081526004016107ae90611530565b60405180910390fd5b8484828181106107ca576107c961140f565b5b90506020020135836107dc91906114b0565b92508686828181106107f1576107f061140f565b5b90506020020160208101906108069190611208565b73ffffffffffffffffffffffffffffffffffffffff166108fc8686848181106108325761083161140f565b5b905060200201359081150290604051600060405180830381858888f19350505050158015610864573d6000803e3d6000fd5b5080806108709061143e565b915050610750565b507f04afd2ce457d973046bd54f5d7d36368546da08b88be1bca8ae50e32b451da178161beef6040516108ac929190611487565b60405180910390a1505050505050565b60015481565b6108ca610a73565b600073ffffffffffffffffffffffffffffffffffffffff168173ffffffffffffffffffffffffffffffffffffffff16141561093a576040517f08c379a0000000000000000000000000000000000000000000000000000000008152600401610931906115c2565b60405180910390fd5b61094381610af1565b50565b61094e610a73565b80600260006101000a81548173ffffffffffffffffffffffffffffffffffffffff021916908373ffffffffffffffffffffffffffffffffffffffff16021790555050565b6000806000905060005b83518110156109e0578381815181106109b8576109b761140f565b5b6020026020010151826109cb91906112e1565b915080806109d89061143e565b91505061099c565b5080915050919050565b610a6d846323b872dd60e01b858585604051602401610a0b939291906115e2565b604051602081830303815290604052907bffffffffffffffffffffffffffffffffffffffffffffffffffffffff19166020820180517bffffffffffffffffffffffffffffffffffffffffffffffffffffffff8381831617835250505050610c3b565b50505050565b610a7b610d02565b73ffffffffffffffffffffffffffffffffffffffff16610a996105a1565b73ffffffffffffffffffffffffffffffffffffffff1614610aef576040517f08c379a0000000000000000000000000000000000000000000000000000000008152600401610ae690611665565b60405180910390fd5b565b60008060009054906101000a900473ffffffffffffffffffffffffffffffffffffffff169050816000806101000a81548173ffffffffffffffffffffffffffffffffffffffff021916908373ffffffffffffffffffffffffffffffffffffffff1602179055508173ffffffffffffffffffffffffffffffffffffffff168173ffffffffffffffffffffffffffffffffffffffff167f8be0079c531659141344cd1fd0a4f28419497f9722a3daafe3b4186f6b6457e060405160405180910390a35050565b610c368363a9059cbb60e01b8484604051602401610bd4929190611685565b604051602081830303815290604052907bffffffffffffffffffffffffffffffffffffffffffffffffffffffff19166020820180517bffffffffffffffffffffffffffffffffffffffffffffffffffffffff8381831617835250505050610c3b565b505050565b6000610c9d826040518060400160405280602081526020017f5361666545524332303a206c6f772d6c6576656c2063616c6c206661696c65648152508573ffffffffffffffffffffffffffffffffffffffff16610d0a9092919063ffffffff16565b9050600081511115610cfd5780806020019051810190610cbd91906116e6565b610cfc576040517f08c379a0000000000000000000000000000000000000000000000000000000008152600401610cf390611785565b60405180910390fd5b5b505050565b600033905090565b6060610d198484600085610d22565b90509392505050565b606082471015610d67576040517f08c379a0000000000000000000000000000000000000000000000000000000008152600401610d5e90611817565b60405180910390fd5b6000808673ffffffffffffffffffffffffffffffffffffffff168587604051610d9091906118b1565b60006040518083038185875af1925050503d8060008114610dcd576040519150601f19603f3d011682016040523d82523d6000602084013e610dd2565b606091505b5091509150610de387838387610def565b92505050949350505050565b60608315610e5257600083511415610e4a57610e0a85610e65565b610e49576040517f08c379a0000000000000000000000000000000000000000000000000000000008152600401610e4090611914565b60405180910390fd5b5b829050610e5d565b610e5c8383610e88565b5b949350505050565b6000808273ffffffffffffffffffffffffffffffffffffffff163b119050919050565b600082511115610e9b5781518083602001fd5b806040517f08c379a0000000000000000000000000000000000000000000000000000000008152600401610ecf9190611989565b60405180910390fd5b600080fd5b600080fd5b600073ffffffffffffffffffffffffffffffffffffffff82169050919050565b6000610f0d82610ee2565b9050919050565b610f1d81610f02565b8114610f2857600080fd5b50565b600081359050610f3a81610f14565b92915050565b600080fd5b600080fd5b600080fd5b60008083601f840112610f6557610f64610f40565b5b8235905067ffffffffffffffff811115610f8257610f81610f45565b5b602083019150836020820283011115610f9e57610f9d610f4a565b5b9250929050565b60008083601f840112610fbb57610fba610f40565b5b8235905067ffffffffffffffff811115610fd857610fd7610f45565b5b602083019150836020820283011115610ff457610ff3610f4a565b5b9250929050565b60008060008060006060868803121561101757611016610ed8565b5b600061102588828901610f2b565b955050602086013567ffffffffffffffff81111561104657611045610edd565b5b61105288828901610f4f565b9450945050604086013567ffffffffffffffff81111561107557611074610edd565b5b61108188828901610fa5565b92509250509295509295909350565b6000819050919050565b6110a381611090565b81146110ae57600080fd5b50565b6000813590506110c08161109a565b92915050565b6000602082840312156110dc576110db610ed8565b5b60006110ea848285016110b1565b91505092915050565b6110fc81610f02565b82525050565b600060208201905061111760008301846110f3565b92915050565b6000806040838503121561113457611133610ed8565b5b600061114285828601610f2b565b9250506020611153858286016110b1565b9150509250929050565b6000806000806040858703121561117757611176610ed8565b5b600085013567ffffffffffffffff81111561119557611194610edd565b5b6111a187828801610f4f565b9450945050602085013567ffffffffffffffff8111156111c4576111c3610edd565b5b6111d087828801610fa5565b925092505092959194509250565b6111e781611090565b82525050565b600060208201905061120260008301846111de565b92915050565b60006020828403121561121e5761121d610ed8565b5b600061122c84828501610f2b565b91505092915050565b600082825260208201905092915050565b7f706172616d65746572206572726f720000000000000000000000000000000000600082015250565b600061127c600f83611235565b915061128782611246565b602082019050919050565b600060208201905081810360008301526112ab8161126f565b9050919050565b7f4e487b7100000000000000000000000000000000000000000000000000000000600052601160045260246000fd5b60006112ec82611090565b91506112f783611090565b9250827fffffffffffffffffffffffffffffffffffffffffffffffffffffffffffffffff0382111561132c5761132b6112b2565b5b828201905092915050565b7f73656e6420616d6f756e74206572726f72206f7220776974686f757420666565600082015250565b600061136d602083611235565b915061137882611337565b602082019050919050565b6000602082019050818103600083015261139c81611360565b9050919050565b7f6e65656420746f20706179000000000000000000000000000000000000000000600082015250565b60006113d9600b83611235565b91506113e4826113a3565b602082019050919050565b60006020820190508181036000830152611408816113cc565b9050919050565b7f4e487b7100000000000000000000000000000000000000000000000000000000600052603260045260246000fd5b600061144982611090565b91507fffffffffffffffffffffffffffffffffffffffffffffffffffffffffffffffff82141561147c5761147b6112b2565b5b600182019050919050565b600060408201905061149c60008301856111de565b6114a960208301846110f3565b9392505050565b60006114bb82611090565b91506114c683611090565b9250828210156114d9576114d86112b2565b5b828203905092915050565b7f6e6f7420656e6f75676820657468657200000000000000000000000000000000600082015250565b600061151a601083611235565b9150611525826114e4565b602082019050919050565b600060208201905081810360008301526115498161150d565b9050919050565b7f4f776e61626c653a206e6577206f776e657220697320746865207a65726f206160008201527f6464726573730000000000000000000000000000000000000000000000000000602082015250565b60006115ac602683611235565b91506115b782611550565b604082019050919050565b600060208201905081810360008301526115db8161159f565b9050919050565b60006060820190506115f760008301866110f3565b61160460208301856110f3565b61161160408301846111de565b949350505050565b7f4f776e61626c653a2063616c6c6572206973206e6f7420746865206f776e6572600082015250565b600061164f602083611235565b915061165a82611619565b602082019050919050565b6000602082019050818103600083015261167e81611642565b9050919050565b600060408201905061169a60008301856110f3565b6116a760208301846111de565b9392505050565b60008115159050919050565b6116c3816116ae565b81146116ce57600080fd5b50565b6000815190506116e0816116ba565b92915050565b6000602082840312156116fc576116fb610ed8565b5b600061170a848285016116d1565b91505092915050565b7f5361666545524332303a204552433230206f7065726174696f6e20646964206e60008201527f6f74207375636365656400000000000000000000000000000000000000000000602082015250565b600061176f602a83611235565b915061177a82611713565b604082019050919050565b6000602082019050818103600083015261179e81611762565b9050919050565b7f416464726573733a20696e73756666696369656e742062616c616e636520666f60008201527f722063616c6c0000000000000000000000000000000000000000000000000000602082015250565b6000611801602683611235565b915061180c826117a5565b604082019050919050565b60006020820190508181036000830152611830816117f4565b9050919050565b600081519050919050565b600081905092915050565b60005b8381101561186b578082015181840152602081019050611850565b8381111561187a576000848401525b50505050565b600061188b82611837565b6118958185611842565b93506118a581856020860161184d565b80840191505092915050565b60006118bd8284611880565b915081905092915050565b7f416464726573733a2063616c6c20746f206e6f6e2d636f6e7472616374000000600082015250565b60006118fe601d83611235565b9150611909826118c8565b602082019050919050565b6000602082019050818103600083015261192d816118f1565b9050919050565b600081519050919050565b6000601f19601f8301169050919050565b600061195b82611934565b6119658185611235565b935061197581856020860161184d565b61197e8161193f565b840191505092915050565b600060208201905081810360008301526119a38184611950565b90509291505056fea264697066735822122090581077912626acd5c77ab5392e205dba227aaa3d262e2e8edee9009e34ec8c64736f6c63430008080033",
  "immutableReferences": {},
  "source": "// SPDX-License-Identifier: UNLICENSED\npragma solidity ^0.8.8;\n\n// import \"@openzeppelin/contracts/access/Ownable.sol\";\n// import \"@openzeppelin/contracts/token/ERC20/IERC20.sol\";\n// import \"@openzeppelin/contracts/token/ERC20/utils/SafeERC20.sol\";\n\n\nimport \"../node_modules/@openzeppelin/contracts/access/Ownable.sol\";\nimport \"../node_modules/@openzeppelin/contracts/token/ERC20/IERC20.sol\";\nimport \"../node_modules/@openzeppelin/contracts/token/ERC20/utils/SafeERC20.sol\";\n\ncontract MultiSender is Ownable {\n    using SafeERC20 for IERC20;\n\n    uint public fee;\n    address payable feeTo;\n\n    event Withdrawn(address indexed token, address indexed to, uint amount);\n    event Multisended(uint256 total, address tokenAddress);\n\n    constructor(uint _fee, address _feeTo) {\n        setFee(_fee);\n        setFeeTo(_feeTo);\n    }\n\n    receive() external payable {}\n\n    /// @dev eth\n    function withdraw(uint _amount) external onlyOwner {\n        feeTo.transfer(_amount); \n        emit Withdrawn(address(0), feeTo, _amount);\n    }\n\n    /// @dev token\n    function withdrawToken(address _token, uint _amount) external onlyOwner {\n        IERC20(_token).safeTransfer(feeTo, _amount);   \n        emit Withdrawn(_token, feeTo, _amount);\n    }\n\n    /// @dev \b\n    function setFee(uint256 _newFee) public onlyOwner {\n        fee = _newFee;\n    }\n\n    function setFeeTo(address _feeTo) public onlyOwner {\n        feeTo = payable(_feeTo);\n    }\n \n    /// @dev token == 0x000000000000000000000000000000000000bEEF ethtoken\n    /// @notice trc20safeTransfer\n    function multisendToken(address token, address[] calldata _contributors, uint256[] calldata _balances) external payable {\n        require(_contributors.length == _balances.length, \"parameter error\");\n        if (token == 0x000000000000000000000000000000000000bEEF){\n            require(msg.value >= fee + sum(_balances), \"send amount error or without fee\");\n            multisendEther(_contributors, _balances);\n        } else {\n            require(msg.value >= fee, \"need to pay\");\n            uint total = 0;\n            IERC20 erc20 = IERC20(token);\n            for (uint i; i < _contributors.length; i++) {\n                erc20.safeTransferFrom(msg.sender, _contributors[i], _balances[i]);\n                total += _balances[i];\n            }\n            emit Multisended(total, token);\n        }\n    }\n\n    function multisendEther(address[] calldata _contributors, uint256[] calldata _balances) public payable {\n        uint256 totalValue = msg.value;\n        uint totalSend = totalValue - fee;\n        require(totalSend >= sum(_balances), \"send amount error or without fee\");\n\n        for (uint i; i < _contributors.length; i++) {\n            require(totalValue >= _balances[i], \"not enough ether\");\n            totalValue -= _balances[i];\n            payable(_contributors[i]).transfer(_balances[i]);\n        }\n        emit Multisended(totalSend, 0x000000000000000000000000000000000000bEEF);\n    }\n\n    function sum(uint[] memory amounts) internal pure returns (uint) {\n        uint totalAmnt = 0;\n        for (uint i=0; i < amounts.length; i++) {\n            totalAmnt += amounts[i];\n        }\n        return totalAmnt;\n    }\n\n}",
  "sourcePath": "/Users/bg/front/github/Blockchain/truffle-solidity/contracts/MultiSender.sol",
  "compiler": {
    "name": "solc",
    "version": "0.8.8+commit.dddeac2f.Linux.g++"
  },
  "schemaVersion": "3.4.13",
  "updatedAt": "2023-08-03T05:21:19.611Z",
  "devdoc": {
    "kind": "dev",
    "methods": {
      "multisendToken(address,address[],uint256[])": {
        "details": "token == 0x000000000000000000000000000000000000bEEF ethtoken"
      },
      "owner()": {
        "details": "Returns the address of the current owner."
      },
      "renounceOwnership()": {
        "details": "Leaves the contract without owner. It will not be possible to call `onlyOwner` functions anymore. Can only be called by the current owner. NOTE: Renouncing ownership will leave the contract without an owner, thereby removing any functionality that is only available to the owner."
      },
      "setFee(uint256)": {
        "details": "\b"
      },
      "transferOwnership(address)": {
        "details": "Transfers ownership of the contract to a new account (`newOwner`). Can only be called by the current owner."
      },
      "withdraw(uint256)": {
        "details": "eth"
      },
      "withdrawToken(address,uint256)": {
        "details": "token"
      }
    },
    "version": 1
  },
  "userdoc": {
    "kind": "user",
    "methods": {
      "multisendToken(address,address[],uint256[])": {
        "notice": "trc20safeTransfer"
      }
    },
    "version": 1
  }
}