{
  "contractName": "SimpleStorage",
  "abi": [
    {
      "inputs": [
        {
          "internalType": "uint256",
          "name": "x",
          "type": "uint256"
        }
      ],
      "name": "setabcdefe",
      "outputs": [],
      "stateMutability": "nonpayable",
      "type": "function"
    },
    {
      "inputs": [],
      "name": "getabcdefe",
      "outputs": [
        {
          "internalType": "uint256",
          "name": "",
          "type": "uint256"
        }
      ],
      "stateMutability": "view",
      "type": "function",
      "constant": true
    },
    {
      "inputs": [],
      "name": "setGoStraight",
      "outputs": [],
      "stateMutability": "nonpayable",
      "type": "function"
    },
    {
      "inputs": [],
      "name": "getChoice",
      "outputs": [
        {
          "internalType": "enum SimpleStorage.ActionChoices",
          "name": "",
          "type": "uint8"
        }
      ],
      "stateMutability": "view",
      "type": "function",
      "constant": true
    },
    {
      "inputs": [],
      "name": "getDefaultChoice",
      "outputs": [
        {
          "internalType": "uint256",
          "name": "",
          "type": "uint256"
        }
      ],
      "stateMutability": "pure",
      "type": "function",
      "constant": true
    }
  ],
  "bytecode": "0x608060405234801561001057600080fd5b506102a8806100206000396000f3fe608060405234801561001057600080fd5b50600436106100575760003560e01c806346aadaa51461005c57806367cb61b614610066578063843f72581461008457806385740a23146100a2578063f424fc20146100c0575b600080fd5b6100646100dc565b005b61006e610109565b60405161007b91906101c5565b60405180910390f35b61008c610120565b60405161009991906101f9565b60405180910390f35b6100aa61013b565b6040516100b791906101f9565b60405180910390f35b6100da60048036038101906100d59190610245565b610144565b005b6002600160006101000a81548160ff021916908360038111156101025761010161014e565b5b0217905550565b6000600160009054906101000a900460ff16905090565b6000600260038111156101365761013561014e565b5b905090565b60008054905090565b8060008190555050565b7f4e487b7100000000000000000000000000000000000000000000000000000000600052602160045260246000fd5b6004811061018e5761018d61014e565b5b50565b600081905061019f8261017d565b919050565b60006101af82610191565b9050919050565b6101bf816101a4565b82525050565b60006020820190506101da60008301846101b6565b92915050565b6000819050919050565b6101f3816101e0565b82525050565b600060208201905061020e60008301846101ea565b92915050565b600080fd5b610222816101e0565b811461022d57600080fd5b50565b60008135905061023f81610219565b92915050565b60006020828403121561025b5761025a610214565b5b600061026984828501610230565b9150509291505056fea264697066735822122020b13c89b7e2ec2b1b118a7c566c425384ab188a93dfe040bbbfa351b67ea33864736f6c63430008080033",
  "immutableReferences": {},
  "source": "pragma solidity >=0.4.22 <0.9.0;\n\n\ncontract SimpleStorage {\n    uint storedData;\n    //\n    enum ActionChoices { GoLeft, GoRight, GoStraight, SitStill }\n    ActionChoices choice;\n    ActionChoices constant defaultChoice = ActionChoices.GoStraight;\n    //\n    // function (<parameter types>) {internal|external} [pure|constant|view|payable] [returns (<return types>)]\n\n\n\n    function setabcdefe(uint  x) public {\n        storedData = x;\n    }\n\n    function getabcdefe() public view returns (uint) {\n        return storedData;\n    }\n\n    function setGoStraight() public {\n        choice = ActionChoices.GoStraight;\n    }\n    function getChoice() public view returns (ActionChoices) {\n        return choice;\n    }\n\n    function getDefaultChoice() public pure returns (uint) {\n        return uint(defaultChoice);\n    }\n}",
  "sourcePath": "/Users/caoshiyuan/project/self/Blockchain/truffle-solidity/contracts/learn.sol",
  "compiler": {
    "name": "solc",
    "version": "0.8.8+commit.dddeac2f.Linux.g++"
  },
  "schemaVersion": "3.4.7",
  "updatedAt": "2022-11-16T13:16:00.979Z",
  "networkType": "ethereum",
  "devdoc": {
    "kind": "dev",
    "methods": {},
    "version": 1
  },
  "userdoc": {
    "kind": "user",
    "methods": {},
    "version": 1
  }
}