{
  "contractName": "SimpleStorage",
  "abi": [
    {
      "inputs": [
        {
          "internalType": "uint256",
          "name": "x",
          "type": "uint256"
        }
      ],
      "name": "set",
      "outputs": [],
      "stateMutability": "nonpayable",
      "type": "function"
    },
    {
      "inputs": [],
      "name": "get",
      "outputs": [
        {
          "internalType": "uint256",
          "name": "",
          "type": "uint256"
        }
      ],
      "stateMutability": "view",
      "type": "function",
      "constant": true
    },
    {
      "inputs": [],
      "name": "setGoStraight",
      "outputs": [],
      "stateMutability": "nonpayable",
      "type": "function"
    },
    {
      "inputs": [],
      "name": "getChoice",
      "outputs": [
        {
          "internalType": "enum SimpleStorage.ActionChoices",
          "name": "",
          "type": "uint8"
        }
      ],
      "stateMutability": "view",
      "type": "function",
      "constant": true
    },
    {
      "inputs": [],
      "name": "getDefaultChoice",
      "outputs": [
        {
          "internalType": "uint256",
          "name": "",
          "type": "uint256"
        }
      ],
      "stateMutability": "pure",
      "type": "function",
      "constant": true
    }
  ],
  "bytecode": "0x608060405234801561001057600080fd5b506102a8806100206000396000f3fe608060405234801561001057600080fd5b50600436106100575760003560e01c806346aadaa51461005c57806360fe47b11461006657806367cb61b6146100825780636d4ce63c146100a0578063843f7258146100be575b600080fd5b6100646100dc565b005b610080600480360381019061007b9190610189565b610109565b005b61008a610113565b604051610097919061022d565b60405180910390f35b6100a861012a565b6040516100b59190610257565b60405180910390f35b6100c6610133565b6040516100d39190610257565b60405180910390f35b6002600160006101000a81548160ff02191690836003811115610102576101016101b6565b5b0217905550565b8060008190555050565b6000600160009054906101000a900460ff16905090565b60008054905090565b600060026003811115610149576101486101b6565b5b905090565b600080fd5b6000819050919050565b61016681610153565b811461017157600080fd5b50565b6000813590506101838161015d565b92915050565b60006020828403121561019f5761019e61014e565b5b60006101ad84828501610174565b91505092915050565b7f4e487b7100000000000000000000000000000000000000000000000000000000600052602160045260246000fd5b600481106101f6576101f56101b6565b5b50565b6000819050610207826101e5565b919050565b6000610217826101f9565b9050919050565b6102278161020c565b82525050565b6000602082019050610242600083018461021e565b92915050565b61025181610153565b82525050565b600060208201905061026c6000830184610248565b9291505056fea264697066735822122096461ffbf6be95eb946b3ee063423f0d36ae8b9703a40b7aa22a84fd711b084064736f6c63430008080033",
  "immutableReferences": {},
  "source": "pragma solidity >=0.4.22 <0.9.0;\n\n\ncontract SimpleStorage {\n    uint storedData;\n    //\n    enum ActionChoices { GoLeft, GoRight, GoStraight, SitStill }\n    ActionChoices choice;\n    ActionChoices constant defaultChoice = ActionChoices.GoStraight;\n    //\n    // function (<parameter types>) {internal|external} [pure|constant|view|payable] [returns (<return types>)]\n\n\n\n    function set(uint  x) public {\n        storedData = x;\n    }\n\n    function get() public view returns (uint) {\n        return storedData;\n    }\n\n    function setGoStraight() public {\n        choice = ActionChoices.GoStraight;\n    }\n    function getChoice() public view returns (ActionChoices) {\n        return choice;\n    }\n\n    function getDefaultChoice() public pure returns (uint) {\n        return uint(defaultChoice);\n    }\n}",
  "sourcePath": "/Users/caoshiyuan/project/self/Blockchain/truffle-solidity/contracts/learn.sol",
  "compiler": {
    "name": "solc",
    "version": "0.8.8+commit.dddeac2f.Linux.g++"
  },
  "schemaVersion": "3.4.7",
  "updatedAt": "2022-04-30T13:44:34.897Z",
  "networkType": "ethereum",
  "devdoc": {
    "kind": "dev",
    "methods": {},
    "version": 1
  },
  "userdoc": {
    "kind": "user",
    "methods": {},
    "version": 1
  }
}