{
  "contractName": "TokenERC20",
  "abi": [
    {
      "inputs": [],
      "stateMutability": "nonpayable",
      "type": "constructor"
    },
    {
      "anonymous": false,
      "inputs": [
        {
          "indexed": true,
          "internalType": "address",
          "name": "from",
          "type": "address"
        },
        {
          "indexed": false,
          "internalType": "uint256",
          "name": "value",
          "type": "uint256"
        }
      ],
      "name": "Burn",
      "type": "event"
    },
    {
      "anonymous": false,
      "inputs": [
        {
          "indexed": true,
          "internalType": "address",
          "name": "from",
          "type": "address"
        },
        {
          "indexed": true,
          "internalType": "address",
          "name": "to",
          "type": "address"
        },
        {
          "indexed": false,
          "internalType": "uint256",
          "name": "value",
          "type": "uint256"
        }
      ],
      "name": "Transfer",
      "type": "event"
    },
    {
      "inputs": [
        {
          "internalType": "address",
          "name": "",
          "type": "address"
        }
      ],
      "name": "balanceOf",
      "outputs": [
        {
          "internalType": "uint256",
          "name": "",
          "type": "uint256"
        }
      ],
      "stateMutability": "view",
      "type": "function",
      "constant": true
    },
    {
      "inputs": [],
      "name": "decimals",
      "outputs": [
        {
          "internalType": "uint8",
          "name": "",
          "type": "uint8"
        }
      ],
      "stateMutability": "view",
      "type": "function",
      "constant": true
    },
    {
      "inputs": [],
      "name": "name",
      "outputs": [
        {
          "internalType": "string",
          "name": "",
          "type": "string"
        }
      ],
      "stateMutability": "view",
      "type": "function",
      "constant": true
    },
    {
      "inputs": [],
      "name": "symbol",
      "outputs": [
        {
          "internalType": "string",
          "name": "",
          "type": "string"
        }
      ],
      "stateMutability": "view",
      "type": "function",
      "constant": true
    },
    {
      "inputs": [],
      "name": "totalSupply",
      "outputs": [
        {
          "internalType": "uint256",
          "name": "",
          "type": "uint256"
        }
      ],
      "stateMutability": "view",
      "type": "function",
      "constant": true
    },
    {
      "inputs": [
        {
          "internalType": "address",
          "name": "_to",
          "type": "address"
        },
        {
          "internalType": "uint256",
          "name": "_value",
          "type": "uint256"
        }
      ],
      "name": "transfer",
      "outputs": [
        {
          "internalType": "bool",
          "name": "success",
          "type": "bool"
        }
      ],
      "stateMutability": "nonpayable",
      "type": "function"
    },
    {
      "inputs": [
        {
          "internalType": "uint256",
          "name": "_value",
          "type": "uint256"
        }
      ],
      "name": "burn",
      "outputs": [
        {
          "internalType": "bool",
          "name": "success",
          "type": "bool"
        }
      ],
      "stateMutability": "nonpayable",
      "type": "function"
    }
  ],
  "bytecode": "0x60806040526040518060400160405280600681526020017f6874747474740000000000000000000000000000000000000000000000000000815250600090805190602001906200005192919062000152565b506040518060400160405280600581526020017f4843434343000000000000000000000000000000000000000000000000000000815250600190805190602001906200009f92919062000152565b506012600260006101000a81548160ff021916908360ff160217905550612710600355348015620000cf57600080fd5b50600260009054906101000a900460ff1660ff16600a620000f191906200038f565b600354620001009190620003e0565b600381905550600354600460003373ffffffffffffffffffffffffffffffffffffffff1673ffffffffffffffffffffffffffffffffffffffff16815260200190815260200160002081905550620004a6565b828054620001609062000470565b90600052602060002090601f016020900481019282620001845760008555620001d0565b82601f106200019f57805160ff1916838001178555620001d0565b82800160010185558215620001d0579182015b82811115620001cf578251825591602001919060010190620001b2565b5b509050620001df9190620001e3565b5090565b5b80821115620001fe576000816000905550600101620001e4565b5090565b7f4e487b7100000000000000000000000000000000000000000000000000000000600052601160045260246000fd5b60008160011c9050919050565b6000808291508390505b6001851115620002905780860481111562000268576200026762000202565b5b6001851615620002785780820291505b8081029050620002888562000231565b945062000248565b94509492505050565b600082620002ab57600190506200037e565b81620002bb57600090506200037e565b8160018114620002d45760028114620002df5762000315565b60019150506200037e565b60ff841115620002f457620002f362000202565b5b8360020a9150848211156200030e576200030d62000202565b5b506200037e565b5060208310610133831016604e8410600b84101617156200034f5782820a90508381111562000349576200034862000202565b5b6200037e565b6200035e84848460016200023e565b9250905081840481111562000378576200037762000202565b5b81810290505b9392505050565b6000819050919050565b60006200039c8262000385565b9150620003a98362000385565b9250620003d87fffffffffffffffffffffffffffffffffffffffffffffffffffffffffffffffff848462000299565b905092915050565b6000620003ed8262000385565b9150620003fa8362000385565b9250817fffffffffffffffffffffffffffffffffffffffffffffffffffffffffffffffff048311821515161562000436576200043562000202565b5b828202905092915050565b7f4e487b7100000000000000000000000000000000000000000000000000000000600052602260045260246000fd5b600060028204905060018216806200048957607f821691505b60208210811415620004a0576200049f62000441565b5b50919050565b610b6080620004b66000396000f3fe608060405234801561001057600080fd5b506004361061007d5760003560e01c806342966c681161005b57806342966c68146100dc57806370a082311461010c57806395d89b411461013c578063a9059cbb1461015a5761007d565b806306fdde031461008257806318160ddd146100a0578063313ce567146100be575b600080fd5b61008a61018a565b60405161009791906107f5565b60405180910390f35b6100a8610218565b6040516100b59190610830565b60405180910390f35b6100c661021e565b6040516100d39190610867565b60405180910390f35b6100f660048036038101906100f191906108b3565b610231565b60405161010391906108fb565b60405180910390f35b61012660048036038101906101219190610974565b610345565b6040516101339190610830565b60405180910390f35b61014461035d565b60405161015191906107f5565b60405180910390f35b610174600480360381019061016f91906109a1565b6103eb565b60405161018191906108fb565b60405180910390f35b6000805461019790610a10565b80601f01602080910402602001604051908101604052809291908181526020018280546101c390610a10565b80156102105780601f106101e557610100808354040283529160200191610210565b820191906000526020600020905b8154815290600101906020018083116101f357829003601f168201915b505050505081565b60035481565b600260009054906101000a900460ff1681565b600081600460003373ffffffffffffffffffffffffffffffffffffffff1673ffffffffffffffffffffffffffffffffffffffff16815260200190815260200160002054101561027f57600080fd5b81600460003373ffffffffffffffffffffffffffffffffffffffff1673ffffffffffffffffffffffffffffffffffffffff16815260200190815260200160002060008282546102ce9190610a71565b9250508190555081600360008282546102e79190610a71565b925050819055503373ffffffffffffffffffffffffffffffffffffffff167fcc16f5dbb4873280815c1ee09dbd06736cffcc184412cf7a71a0fdb75d397ca5836040516103349190610830565b60405180910390a260019050919050565b60046020528060005260406000206000915090505481565b6001805461036a90610a10565b80601f016020809104026020016040519081016040528092919081815260200182805461039690610a10565b80156103e35780601f106103b8576101008083540402835291602001916103e3565b820191906000526020600020905b8154815290600101906020018083116103c657829003601f168201915b505050505081565b60006103f8338484610402565b6001905092915050565b600073ffffffffffffffffffffffffffffffffffffffff168273ffffffffffffffffffffffffffffffffffffffff16141561043c57600080fd5b80600460008573ffffffffffffffffffffffffffffffffffffffff1673ffffffffffffffffffffffffffffffffffffffff16815260200190815260200160002054101561048857600080fd5b600460008373ffffffffffffffffffffffffffffffffffffffff1673ffffffffffffffffffffffffffffffffffffffff1681526020019081526020016000205481600460008573ffffffffffffffffffffffffffffffffffffffff1673ffffffffffffffffffffffffffffffffffffffff168152602001908152602001600020546105139190610aa5565b101561051e57600080fd5b6000600460008473ffffffffffffffffffffffffffffffffffffffff1673ffffffffffffffffffffffffffffffffffffffff16815260200190815260200160002054600460008673ffffffffffffffffffffffffffffffffffffffff1673ffffffffffffffffffffffffffffffffffffffff168152602001908152602001600020546105aa9190610aa5565b905081600460008673ffffffffffffffffffffffffffffffffffffffff1673ffffffffffffffffffffffffffffffffffffffff16815260200190815260200160002060008282546105fb9190610a71565b9250508190555081600460008573ffffffffffffffffffffffffffffffffffffffff1673ffffffffffffffffffffffffffffffffffffffff16815260200190815260200160002060008282546106519190610aa5565b925050819055508273ffffffffffffffffffffffffffffffffffffffff168473ffffffffffffffffffffffffffffffffffffffff167fddf252ad1be2c89b69c2b068fc378daa952ba7f163c4a11628f55a4df523b3ef846040516106b59190610830565b60405180910390a380600460008573ffffffffffffffffffffffffffffffffffffffff1673ffffffffffffffffffffffffffffffffffffffff16815260200190815260200160002054600460008773ffffffffffffffffffffffffffffffffffffffff1673ffffffffffffffffffffffffffffffffffffffff168152602001908152602001600020546107489190610aa5565b1461075657610755610afb565b5b50505050565b600081519050919050565b600082825260208201905092915050565b60005b8381101561079657808201518184015260208101905061077b565b838111156107a5576000848401525b50505050565b6000601f19601f8301169050919050565b60006107c78261075c565b6107d18185610767565b93506107e1818560208601610778565b6107ea816107ab565b840191505092915050565b6000602082019050818103600083015261080f81846107bc565b905092915050565b6000819050919050565b61082a81610817565b82525050565b60006020820190506108456000830184610821565b92915050565b600060ff82169050919050565b6108618161084b565b82525050565b600060208201905061087c6000830184610858565b92915050565b600080fd5b61089081610817565b811461089b57600080fd5b50565b6000813590506108ad81610887565b92915050565b6000602082840312156108c9576108c8610882565b5b60006108d78482850161089e565b91505092915050565b60008115159050919050565b6108f5816108e0565b82525050565b600060208201905061091060008301846108ec565b92915050565b600073ffffffffffffffffffffffffffffffffffffffff82169050919050565b600061094182610916565b9050919050565b61095181610936565b811461095c57600080fd5b50565b60008135905061096e81610948565b92915050565b60006020828403121561098a57610989610882565b5b60006109988482850161095f565b91505092915050565b600080604083850312156109b8576109b7610882565b5b60006109c68582860161095f565b92505060206109d78582860161089e565b9150509250929050565b7f4e487b7100000000000000000000000000000000000000000000000000000000600052602260045260246000fd5b60006002820490506001821680610a2857607f821691505b60208210811415610a3c57610a3b6109e1565b5b50919050565b7f4e487b7100000000000000000000000000000000000000000000000000000000600052601160045260246000fd5b6000610a7c82610817565b9150610a8783610817565b925082821015610a9a57610a99610a42565b5b828203905092915050565b6000610ab082610817565b9150610abb83610817565b9250827fffffffffffffffffffffffffffffffffffffffffffffffffffffffffffffffff03821115610af057610aef610a42565b5b828201905092915050565b7f4e487b7100000000000000000000000000000000000000000000000000000000600052600160045260246000fdfea2646970667358221220b20b99b62c978aeae71b524730096c0f6aa4077c3b93c0df5ec06b1682fbf2d764736f6c63430008080033",
  "immutableReferences": {},
  "source": "pragma solidity >=0.4.22 <0.9.0;\n\n// // https://docs.openzeppelin.com/contracts/4.x/\n// import \"../node_modules/@openzeppelin/contracts/token/ERC20/ERC20.sol\";\n// contract ABCToken is ERC20 {\n//     constructor(uint256 initialSupply) ERC20(\"ABC\", \"ABC\") {\n//         _mint(msg.sender, initialSupply);\n//     }\n// }\n\n//Abstract contract for the full ERC 20 Token standard\n// https://github.com/ethereum/EIPs/issues/20\n\n/**\n * @title Token ERC20 implementation\n * @dev Simplified version - Contract allows only Transfer and Burn Tokens\n * @dev source: https://www.ethereum.org/token\n */\ncontract TokenERC20 {\n    // Public variables of the token\n    string public name = \"httttt\";\n    string public symbol = \"HCCCC\";\n    uint8 public decimals = 18;  \n    // 18 decimals is the strongly suggested default, avoid changing it\n    uint256 public totalSupply = 10000;\n    // This creates an array with all balances\n    mapping(address => uint256) public balanceOf; \n    // This generates a public event on the blockchain that will notify clients\n    event Transfer(address indexed from, address indexed to, uint256 value);\n    // This notifies clients about the amount burnt\n    event Burn(address indexed from, uint256 value);\n\n    /**\n     * Constructor function\n     *\n     * Initializes contract with initial supply tokens to the creator of the contract\n     */\n    constructor(\n        // uint256 initialSupply,\n        // string memory tokenName,\n        // string memory tokenSymbol\n    ) public {\n        totalSupply = totalSupply * 10**uint256(decimals); // Update total supply with the decimal amount\n        balanceOf[msg.sender] = totalSupply; // Give the creator all initial tokens\n        // name = tokenName; // Set the name for display purposes\n        // symbol = tokenSymbol; // Set the symbol for display purposes\n    }\n    /**\n     * Internal transfer, only can be called by this contract\n     */\n    function _transfer(\n        address _from,\n        address _to,\n        uint256 _value\n    ) internal {\n        // Prevent transfer to 0x0 address. Use burn() instead\n        require(_to != address(0x0));\n        // Check if the sender has enough\n        require(balanceOf[_from] >= _value);\n        // Check for overflows\n        require(balanceOf[_to] + _value >= balanceOf[_to]);\n        // Save this for an assertion in the future\n        uint256 previousBalances = balanceOf[_from] + balanceOf[_to];\n        // Subtract from the sender\n        balanceOf[_from] -= _value;\n        // Add the same to the recipient\n        balanceOf[_to] += _value;\n        emit Transfer(_from, _to, _value);\n        // Asserts are used to use static analysis to find bugs in your code. They should never fail\n        assert(balanceOf[_from] + balanceOf[_to] == previousBalances);\n    }\n\n    /**\n     * Transfer tokens\n     *\n     * Send `_value` tokens to `_to` from your account\n     *\n     * @param _to The address of the recipient\n     * @param _value the amount to send\n     */\n    function transfer(address _to, uint256 _value)\n        public\n        returns (bool success)\n    {\n        _transfer(msg.sender, _to, _value);\n        return true;\n    }\n\n    /**\n     * Destroy tokens\n     *\n     * Remove `_value` tokens from the system irreversibly\n     *\n     * @param _value the amount of money to burn\n     */\n    function burn(uint256 _value) public returns (bool success) {\n        require(balanceOf[msg.sender] >= _value); // Check if the sender has enough\n        balanceOf[msg.sender] -= _value; // Subtract from the sender\n        totalSupply -= _value; // Updates totalSupply\n        emit Burn(msg.sender, _value);\n        return true;\n    }\n}\n",
  "sourcePath": "/Users/caoshiyuan/project/self/Blockchain/truffle-solidity/contracts/TokenERC20.sol",
  "compiler": {
    "name": "solc",
    "version": "0.8.8+commit.dddeac2f.Linux.g++"
  },
  "schemaVersion": "3.4.7",
  "updatedAt": "2022-11-10T17:47:38.183Z",
  "networkType": "ethereum",
  "devdoc": {
    "details": "Simplified version - Contract allows only Transfer and Burn Tokenssource: https://www.ethereum.org/token",
    "kind": "dev",
    "methods": {
      "burn(uint256)": {
        "params": {
          "_value": "the amount of money to burn"
        }
      },
      "transfer(address,uint256)": {
        "params": {
          "_to": "The address of the recipient",
          "_value": "the amount to send"
        }
      }
    },
    "title": "Token ERC20 implementation",
    "version": 1
  },
  "userdoc": {
    "kind": "user",
    "methods": {
      "burn(uint256)": {
        "notice": "Destroy tokens Remove `_value` tokens from the system irreversibly"
      },
      "constructor": {
        "notice": "Constructor function Initializes contract with initial supply tokens to the creator of the contract"
      },
      "transfer(address,uint256)": {
        "notice": "Transfer tokens Send `_value` tokens to `_to` from your account"
      }
    },
    "version": 1
  }
}