{
  "contractName": "WeatherOracle",
  "abi": [
    {
      "inputs": [
        {
          "internalType": "address",
          "name": "_oracleAddress",
          "type": "address"
        }
      ],
      "stateMutability": "nonpayable",
      "type": "constructor"
    },
    {
      "anonymous": false,
      "inputs": [
        {
          "indexed": false,
          "internalType": "string",
          "name": "weatherDescription",
          "type": "string"
        },
        {
          "indexed": false,
          "internalType": "string",
          "name": "temperature",
          "type": "string"
        },
        {
          "indexed": false,
          "internalType": "string",
          "name": "humidity",
          "type": "string"
        },
        {
          "indexed": false,
          "internalType": "string",
          "name": "visibility",
          "type": "string"
        },
        {
          "indexed": false,
          "internalType": "string",
          "name": "windSpeed",
          "type": "string"
        },
        {
          "indexed": false,
          "internalType": "string",
          "name": "windDirection",
          "type": "string"
        },
        {
          "indexed": false,
          "internalType": "string",
          "name": "windGust",
          "type": "string"
        }
      ],
      "name": "WeatherUpdate",
      "type": "event"
    },
    {
      "inputs": [],
      "name": "oracleAddress",
      "outputs": [
        {
          "internalType": "address",
          "name": "",
          "type": "address"
        }
      ],
      "stateMutability": "view",
      "type": "function"
    },
    {
      "inputs": [
        {
          "internalType": "string",
          "name": "weatherDescription",
          "type": "string"
        },
        {
          "internalType": "string",
          "name": "temperature",
          "type": "string"
        },
        {
          "internalType": "string",
          "name": "humidity",
          "type": "string"
        },
        {
          "internalType": "string",
          "name": "visibility",
          "type": "string"
        },
        {
          "internalType": "string",
          "name": "windSpeed",
          "type": "string"
        },
        {
          "internalType": "string",
          "name": "windDirection",
          "type": "string"
        },
        {
          "internalType": "string",
          "name": "windGust",
          "type": "string"
        }
      ],
      "name": "updateWeather",
      "outputs": [],
      "stateMutability": "nonpayable",
      "type": "function"
    }
  ],
  "bytecode": "0x608060405234801561001057600080fd5b506040516106ce3803806106ce833981810160405281019061003291906100db565b806000806101000a81548173ffffffffffffffffffffffffffffffffffffffff021916908373ffffffffffffffffffffffffffffffffffffffff16021790555050610108565b600080fd5b600073ffffffffffffffffffffffffffffffffffffffff82169050919050565b60006100a88261007d565b9050919050565b6100b88161009d565b81146100c357600080fd5b50565b6000815190506100d5816100af565b92915050565b6000602082840312156100f1576100f0610078565b5b60006100ff848285016100c6565b91505092915050565b6105b7806101176000396000f3fe608060405234801561001057600080fd5b50600436106100365760003560e01c8063929d19101461003b578063a89ae4ba14610057575b600080fd5b61005560048036038101906100509190610297565b610075565b005b61005f610119565b60405161006c919061043e565b60405180910390f35b60008054906101000a900473ffffffffffffffffffffffffffffffffffffffff1673ffffffffffffffffffffffffffffffffffffffff163373ffffffffffffffffffffffffffffffffffffffff16146100cd57600080fd5b7fec6344556027118abac8448a3cc40772c47ba3078250f7e8f1b7dfed078f20828787878787878760405161010897969594939291906104e1565b60405180910390a150505050505050565b60008054906101000a900473ffffffffffffffffffffffffffffffffffffffff1681565b6000604051905090565b600080fd5b600080fd5b600080fd5b600080fd5b6000601f19601f8301169050919050565b7f4e487b7100000000000000000000000000000000000000000000000000000000600052604160045260246000fd5b6101a48261015b565b810181811067ffffffffffffffff821117156101c3576101c261016c565b5b80604052505050565b60006101d661013d565b90506101e2828261019b565b919050565b600067ffffffffffffffff8211156102025761020161016c565b5b61020b8261015b565b9050602081019050919050565b82818337600083830152505050565b600061023a610235846101e7565b6101cc565b90508281526020810184848401111561025657610255610156565b5b610261848285610218565b509392505050565b600082601f83011261027e5761027d610151565b5b813561028e848260208601610227565b91505092915050565b600080600080600080600060e0888a0312156102b6576102b5610147565b5b600088013567ffffffffffffffff8111156102d4576102d361014c565b5b6102e08a828b01610269565b975050602088013567ffffffffffffffff8111156103015761030061014c565b5b61030d8a828b01610269565b965050604088013567ffffffffffffffff81111561032e5761032d61014c565b5b61033a8a828b01610269565b955050606088013567ffffffffffffffff81111561035b5761035a61014c565b5b6103678a828b01610269565b945050608088013567ffffffffffffffff8111156103885761038761014c565b5b6103948a828b01610269565b93505060a088013567ffffffffffffffff8111156103b5576103b461014c565b5b6103c18a828b01610269565b92505060c088013567ffffffffffffffff8111156103e2576103e161014c565b5b6103ee8a828b01610269565b91505092959891949750929550565b600073ffffffffffffffffffffffffffffffffffffffff82169050919050565b6000610428826103fd565b9050919050565b6104388161041d565b82525050565b6000602082019050610453600083018461042f565b92915050565b600081519050919050565b600082825260208201905092915050565b60005b83811015610493578082015181840152602081019050610478565b838111156104a2576000848401525b50505050565b60006104b382610459565b6104bd8185610464565b93506104cd818560208601610475565b6104d68161015b565b840191505092915050565b600060e08201905081810360008301526104fb818a6104a8565b9050818103602083015261050f81896104a8565b9050818103604083015261052381886104a8565b9050818103606083015261053781876104a8565b9050818103608083015261054b81866104a8565b905081810360a083015261055f81856104a8565b905081810360c083015261057381846104a8565b90509897505050505050505056fea2646970667358221220a38d5497615c7edd7bce68f8cadd614d14d07efd51548306e499e91e232b61e164736f6c63430008080033",
  "immutableReferences": {},
  "source": "pragma solidity >=0.4.22 <0.9.0;\n\n\ncontract WeatherOracle {\n  address public oracleAddress;\n\n  constructor  (address  _oracleAddress)  {\n    oracleAddress = _oracleAddress;\n  }\n\n  event WeatherUpdate (\n    string weatherDescription,\n    string temperature,\n    string humidity,\n    string visibility,\n    string windSpeed,\n    string windDirection,\n    string windGust\n  );\n\n  function updateWeather (\n    string memory weatherDescription,\n    string memory temperature,\n    string memory humidity,\n    string memory visibility,\n    string memory  windSpeed,\n    string memory windDirection,\n    string memory windGust\n  )\n  public\n  {\n    require(msg.sender == oracleAddress);\n\n\n    emit WeatherUpdate (\n      weatherDescription,\n      temperature,\n      humidity,\n      visibility,\n      windSpeed,\n      windDirection,\n      windGust\n    );\n  }\n}\n",
  "sourcePath": "/Users/bg/front/github/Blockchain/truffle-solidity/contracts/WeatherOracle.sol",
  "compiler": {
    "name": "solc",
    "version": "0.8.8+commit.dddeac2f.Linux.g++"
  },
  "schemaVersion": "3.4.13",
  "updatedAt": "2023-08-03T05:21:19.616Z",
  "devdoc": {
    "kind": "dev",
    "methods": {},
    "version": 1
  },
  "userdoc": {
    "kind": "user",
    "methods": {},
    "version": 1
  }
}